:020000021000EC
:10000000E03F082093010100FB000100E100010036
:10001000090101001901010029010100000000008F
:10002000000000000000000000000000B96C0100AA
:100030003901010000000000456D01005901010077
:100040006172010061720100617201006172010060
:100050006172010061720100617201006172010050
:100060006172010061720100617201006172010040
:100070006172010061720100617201006172010030
:100080006172010061720100617201006172010020
:100090006172010061720100617201006172010010
:1000A0006172010061720100617201006172010000
:1000B00061720100617201006172010061720100F0
:1000C000617201006172010061720100F0000200C2
:1000D00000C00720BC010000C0C107202C040000A4
:1000E00004207146084203D0EFF3098007F0D6B828
:1000F000EFF3088007F0D2B8704708B5014804F064
:1001000085FEFEE7F5FA010008B5024804F07EFE20
:10011000FEE700BF00FB010008B5024804F076FED0
:10012000FEE700BF0BFB010008B5024804F06EFEBD
:10013000FEE700BF16FB010008B5024804F066FEAA
:10014000FEE700BF23FB010008B5024804F05EFE95
:10015000FEE700BF31FB010008B506F083FD06F0A5
:1001600013FEBDE8084006F091BD0B4610B55C1AC1
:10017000944204D2441AE45843F8044BF7E710BD04
:1001800003461A1A8A4203D2002243F8042BF8E7E6
:100190007047164806F042FE144806F042FE144C22
:1001A000144B9C4207D294E803000C3454F8042CFE
:1001B000FFF7DBFFF4E7104B9C4206D254F8080B24
:1001C00054F8041CFFF7DCFFF5E708F063FE06F0C7
:1001D00035FE00F037FA00F09DFD4FF4164007F0B1
:1001E0007BF9064804F012FEFEE700BFE03F08205E
:1001F000CC000100D8000100E000010045FB010037
:10020000144A70B51368014613B94FF08053136058
:100210001068114B4518114E2B44B34298BF104B38
:100220000C4C96BFC81825602060126898BF18460D
:100230000C4B9A4281BF0C4A064B00201A6039B120
:100240000A4A136801331360094B1860094B19609F
:1002500070BD00BFC4C10720FF7FFFEFFE3F071046
:10026000ECC50720FF3F082000400820CCC1072034
:10027000C0C10720C8C1072008F032BE08F038BE50
:1002800010B504468AB0684609F0D6F8204A214BDA
:100290002260089A2049A260079A626052B90A68EF
:1002A0001E4882428ABF02F1604202F17042A2F50A
:1002B000E82262606268B2F5803F82BF02F170425C
:1002C000A2F5E82262600022E2600A6813498A42CD
:1002D00005D8C3F1405303F50C239B1A09E01049DC
:1002E0008A4207D8C3F1804303F580139B1A002B81
:1002F00000DDE36020460B4BE2611B68A3610A4B03
:100300001B686361094B1B6823610AB010BD00BF05
:10031000EC050000ECC50720C4C1072000800010D8
:10032000FF3F0820C0C10720C8C10720CCC107205B
:10033000FEE70000014B1860704700BFD4C10720E2
:10034000014B1860704700BFD0C1072008B50248B4
:100350000AF004F8FEE700BF38EB010008B50248D8
:1003600009F0FCFFFEE700BF52EB010000207047E0
:1003700001207047F8B5084B16461A680F461C4610
:1003800042B10D46EB1BB34204DA236815F8010BAA
:100390009847F7E73046F8BDD4C10720F8B5094BB8
:1003A0000F46186816461C4658B10D46EB1BB34263
:1003B00005DA23680020984705F8010BF6E726EADE
:1003C000E670F8BDD0C107207047002070470000DC
:1003D000074B1B689A68824207D05A68824204D051
:1003E000DB681B1A5842584170470120704700BF14
:1003F00040C10720002070470020704730B50446F8
:100400008DB0A8B3684605F0C9F89DF80030002506
:1004100003F03F0303939DF8013003A803F03F036B
:1004200004939DF802300B9503F01F0305939DF88C
:10043000043003F01F0306939DF8053003F00F030B
:10044000013B0793BDF80630C3F30B03A3F26C73B3
:1004500008939DF8033003F007030993BDF80830B3
:10046000C3F30B03013B0A9308F06CFE84E8210000
:1004700000200DB030BD000070B50F4D0F4E2C6840
:1004800014F0010415D1284607F0ECF888B14FF4B8
:100490000E70FFF7F1FE302380F835323A2380F8F2
:1004A000344280F8363280F837423060284607F010
:1004B000E5F8306870BD00BFF4C10720DCC107203B
:1004C00038B5064C236833B91C20FFF7D5FE054626
:1004D00004F068FF2560206838BD00BFE8C1072030
:1004E000014809F03BBF00BF6CEB010038B5044682
:1004F0000D4606F09FFF074BB0FBF3F00223B0FB65
:10050000F3F2954201D3236138BDB3F5807FFAD071
:100510000233F4E740420F007FB500F235260C4667
:100520000122314603F0F4FC054650BB04A941F812
:10053000040D02AA304604F052F800BB029A039B55
:100540009078926903FB00F1023A42435208B2F5F7
:10055000004F104834BF01254FF480654FEA510128
:100560000D4BB1FBF5F128BF0346B2FBF5F28DE868
:100570000A000A48214609F07BFE012008E0084BEA
:1005800000E0084B084821462A4609F071FE002089
:1005900004B070BDAAEB0100A7EB0100B4EB0100B1
:1005A000ADEB0100B1EB0100E2EB010038B5074C07
:1005B00023684BB90820FFF75FFE0546FFF780FF71
:1005C000402328602B712560206838BD00C20720B9
:1005D00038B5054C256825B90120FFF74DFE05709B
:1005E0002060206838BD00BFFCC1072038B5084C2A
:1005F00023685BB90C20FFF73FFE0546FFF760FF5D
:1006000090232B7100232860AB602560206838BDE3
:10061000E0C1072010B5044C23681BB90120FFF787
:100620002BFE2060206810BDE4C1072010B5044CEB
:1006300023681BB90120FFF71FFE2060206810BD52
:10064000F8C10720AD49AE4A4023F0B58B614FF0A9
:10065000007393614FF480338B61AA4BADF5057D38
:100660001868072520F0F00018601868022440F090
:1006700050001860186820F440501860086840F076
:1006800040000860186820F47C201860186840F466
:1006900028201860186820F470001860186840F46A
:1006A00020001860186820F040401860186840F07A
:1006B00000401860586820F03C005860586840F0CE
:1006C00028005860586820F003005860086840F41B
:1006D00080300860586820F440505860086820F462
:1006E00080000860D96821F44031D960116841F078
:1006F00080711160596821F440215960596841F4B2
:10070000802159609868804901409960116841F4DE
:10071000897141F001011160996821F470119960AB
:10072000996821F070419960116821F44641116087
:10073000D96821F03001D960D96841F03001D96021
:10074000D96821F47011D960136843F00073136005
:10075000136823F08063136004F06EFC0A2001210B
:1007600006F088FC0A20012106F09CFC6748012164
:1007700005604460FFF7BAFE04F0D4FF15200121A4
:1007800006F078FC1520012106F08CFC6048012160
:1007900005604460FFF7AAFEFFF792FE642104F0B3
:1007A000CBFD10B95B4809F0D9FD06F0A1FC01F0C2
:1007B00091FB10B9584809F0D1FD4FF4FA6004F0EC
:1007C000FAFBFFF78DFE06F035FE07F039FD5349C1
:1007D00007F042FE07F0BAFB02460B46504809F00C
:1007E00047FD06F025FB052804AC14D10023636007
:1007F0004C4B1B682360FFF773FE4B4B4B48D96C87
:100800001A6D5B6D009409F033FDFFF769FE41F24C
:10081000883004F0D0FBFFF72FFE4549FFF77CFE40
:10082000054668BB434809F023FD02F041FCFFF791
:1008300023FE29462A4600F2352003F035FF3E4BC1
:100840003E4A00280CBF1046184609F087FDFFF706
:1008500013FE3749FFF760FE90B9394809F07EFD75
:1008600002F0D2FB0146374809F002FD02F0BCFB62
:10087000054602F0C9FB05FB00F1334809F0F8FC1E
:10088000324E334F336813F0010516D1304606F06F
:10089000E9FE90B14FF40E70FFF7EEFC012380F8F3
:1008A0003432312380F835323A2380F8363280F8FA
:1008B00037523860304606F0E1FE26493868264D4A
:1008C000FFF72AFE11481821FFF710FEFFF708FE78
:1008D0002B684BB90820FFF7CFFC0646FFF7F0FD69
:1008E0003823306033712E60286801F0CBFB054659
:1008F000B0BB1A4809F032FD33E000BF00C0092048
:1009000020C0092000C00240F0FCFCFF00000340B2
:10091000008008402DEC01005EEC010000247449C9
:1009200083EC010044400240004002409BEC010087
:1009300013ED01001BED01001AEC010015EC0100A4
:1009400058ED010077ED010086ED0100F0C10720B0
:10095000D8C10720A1ED010008C20720A9ED0100C0
:100960000125FFF743FE01F0A1FC064618B97248C5
:1009700009F0F4FC3546FFF719FE01F00DFC0646C0
:1009800018B96E4809F0EAFC35466D4E33681BB95C
:100990000120FFF771FC3060306801F0CBFBFFF7FE
:1009A00039FE01F06FFCFFF713FE01F03AFCFFF790
:1009B0003DFE01F06CFCFFF70BFE002101F034FC62
:1009C0008DB9FFF78DFDFFF7F1FD2D2101F0CCFB77
:1009D000FFF7ECFD2D2101F0D3FBFFF7F9FDFF211F
:1009E00001F022FC0CE0FFF7E1FD0546FFF7FEFDFC
:1009F00001F086FC07F068FEC1B2284601F0F3FB67
:100A000000211022204608F0BFFA4E4821460F224E
:100A1000002301F087FC80B9204608F052F9C5B2E6
:100A2000284600F041FC484A484B2946002808BFA8
:100A300013464748434A09F01BFCFFF7EBFD01F062
:100A400023FC054600200AF03DFE284409F08EFCF8
:100A50004FF400720021204608F096FA204606F076
:100A600085FB21463B4809F003FCFFF739FD802256
:100A70000021204608F088FA204602F0A1FA2278E8
:100A8000FF2A04D02146344809F0F2FB29E0FFF7A1
:100A9000CDFD01F0FFFB09281DD1304809F05EFCB7
:100AA00021462F4809F08CFD21462E4809F0E0FB35
:100AB0002D4809F053FC00232C4803A9039309F0A7
:100AC0007FFD9DF80C30592B03D1204602F056FAD9
:100AD00007E0274803E0274809F040FC264809F0D2
:100AE0003DFC4FF208031C684FF20C031D684FF2E7
:100AF00010031E684FF2040319684FF470431A681C
:100B0000A40AAD0A1D4809F0B3FB224629461C4839
:100B100009F0AEFB31461B4809F0AAFBFFF7E0FCE9
:100B2000012004F007F9184809F018FCFFF7D8FC79
:100B30000DF5057DF0BD00BFC4ED0100DEED010047
:100B400004C20720F7ED010026EC010020EC0100B3
:100B5000FDED010031EE010034EE010050EE010028
:100B600072EE010077EE010092EE0100D5EE010079
:100B7000D9EE0100F1EE01001FEF010051EF01007D
:100B80007DEF0100AAEF0100C7EF010010B5044C92
:100B900023681BB90120FFF76FFB2060206810BDA0
:100BA00004C2072038B5154C23684BB90820FFF75D
:100BB00063FB0546FFF784FC382328602B71256012
:100BC000206801F06FFA07F03FFB4FF0894107F012
:100BD00087FA4FF0685107F08BFB094907F088FB53
:100BE0000446FFF7E3FC0546204607F06DFDC1B261
:100BF000284601F0F8FA204638BD00BF08C2072099
:100C00000000C842542808B507DDFFF7CBFF07F006
:100C100035FD5428F9DC012008BD4F2810DC4A2896
:100C200010DC452814DC402810DC27280CDC2228A6
:100C30000CDC1D280CDC1828CCBF4B20642008BD20
:100C4000642008BD4B2008BD002008BD192008BD48
:100C5000322008BD542808B507DDFFF7A3FF07F0D1
:100C60000DFD5428F9DC012008BD3B281CDC36288A
:100C70001CDC31281CDC2C2814DC272810DC222862
:100C800010DC1D2814DC182810DC13280CDC0E28BE
:100C90000CDC09280CDC0428CCBF4B20642008BDE8
:100CA000642008BD4B2008BD002008BD192008BDE8
:100CB000322008BD542808B507DDFFF773FF07F0A1
:100CC000DDFC5428F9DC012008BD4F2818DC4A2837
:100CD00018DC45281CDC402818DC3B2810DC3628B2
:100CE00010DC312814DC2C2810DC13280CDC0E2836
:100CF0000CDC09280CDC0428CCBF4B20642008BD88
:100D0000642008BD4B2008BD002008BD192008BD87
:100D1000322008BDF0B5002487B001214FF47A726B
:100D200001A804F05BFB03214FF47A7202A804F0DF
:100D300055FB4FF47A72052103A804F04FFB3421D0
:100D400004A801F013F904A801F03FF90546642056
:100D500004F031F9052C00F2A580DFE804F0031857
:100D6000334A6178002102A804F092FB002101A817
:100D700004F08EFB002103A804F08AFBFFF712FFAA
:100D800007F07CFC5428D4BF002401248AE0FFF73C
:100D90000DFC01F01DFA4A4903A804F079FB00217B
:100DA00001A804F075FB002102A804F071FB4FF4C8
:100DB000FA7004F000F9642004F0FDF8002D18BF6B
:100DC00002246FE03E4901A804F062FB002103A861
:100DD00004F05EFB002102A804F05AFB4FF4FA7005
:100DE00004F0E9F8642004F0E6F8002D18BF0324AD
:100DF00058E0002101A804F04BFB314902A804F09F
:100E000047FB002103A804F043FB4FF4FA7004F001
:100E1000D2F8642004F0CFF8002D18BF042441E07C
:100E2000274901A804F034FB254903A804F030FB4E
:100E3000002102A804F02CFB4FF4FA7004F0BBF878
:100E4000642004F0B8F8002D18BF05242AE00A2019
:100E500004F0B1F82DBBFFF7A5FE07F00FFC054627
:100E6000FFF7D0FE07462846FFF7F4FE0646284661
:100E7000FFF720FF0546384607F0E6F9014601A8CE
:100E800004F006FB284607F0DFF9014603A804F04A
:100E9000FFFA304607F0D8F9014602A804F0F8FA44
:100EA00000E0002404A801F0C1F803A804F0D8FA77
:100EB00002A804F0D5FA01A804F0D2FA2DE700BF89
:100EC0000000C842242310B503FB010188420BD067
:100ED00043783BB1038CD4184FF6FF73A34228BF6D
:100EE000234603842430F1E710BD000037B500230A
:100EF00002A840F8043D0C4B04215B6898470B4B5B
:100F0000019A1C680546141B1A60094822460421F0
:100F1000FFF7D8FF074802212246FFF7D3FF281C1E
:100F200018BF012003B030BD0CC20720D8C2072073
:100F300020C20720FBC2072008B50B4B19780378A5
:100F40008B420A4B0BBF1A889A880132013214BFB8
:100F50009A801A80064B8170DB6820219847003008
:100F600018BF012008BD00BF05C00720C8C2072068
:100F70000CC207200A4B02781B789A42094B0BBF20
:100F8000DA881A89013201320CBFDA801A810379BA
:100F9000C3F3C202073262F3C5030371FFF7CCBF8C
:100FA00005C00720C8C2072010B5002306499A00D3
:100FB00011F82340844201D1881810BD0133042B5D
:100FC000F4D1002010BD00BFE9C2072070B1C37882
:100FD0000133DBB2FF2BC37008D10023044A1A444B
:100FE000D17804334908102BD170F7D1704700BF76
:100FF000E9C20720242202FB01010346024630B564
:101000008A4206D01446243212F8235C002DF7D110
:101010000FE0044600258B420BD01A79C2F3C200C0
:101020001A8C42EA004295423CBF1C4615462433C6
:10103000F1E7204630BD000038B50546C90001F192
:101040000804FFF753FF1C4B1A782B789A4204D1FF
:1010500002211A48FFF7CEFF0CE019480421FFF7E0
:10106000C9FFEB7833B990F82330042443F08003B0
:1010700080F82330002380F8203080F821300246A9
:101080002B4690F8231080F8224021F07F01C4F312
:1010900006240C4380F8234005F1200153F8044B4B
:1010A0008B4242F8044BF9D1064A0379127862F375
:1010B000C503037138BD00BF05C00720FBC2072070
:1010C00020C2072004C0072010B5FFF76DFF0446BB
:1010D000F8B9FFF769FF0446D8B90F4BDA79D97828
:1010E0008A4228BF0A46D97A34BF1C1D1C46914249
:1010F0002CBF1146094CDA7B094B8A4238BF1C468B
:1011000004222046002107F03FFF064AD37A01332C
:10111000D372204610BD00BFE9C20720F1C20720EC
:10112000F5C20720C8C207202DE9F04105460C464C
:101130004FF0240808FB02188E1D444500F09E80E5
:1011400094F823301A0625D5BDB12A7861788A42F1
:1011500005D16F7816F8060C874200F09180E87888
:1011600058B16878884208D116F8061C914204D11B
:10117000A979A279914200F0838094F82220218CF1
:1011800003F07F0342EA0323994274DB2046FFF712
:10119000D3FE75E06278002A6DD06DB3297901F035
:1011A000C001C02917D116F8060C6978884202D10F
:1011B0002878904264D0E778A87887420CD1914291
:1011C0000AD116F8060C2978884205D1A079A979A8
:1011D000884201D154E079B1A878E17888420BD1F6
:1011E0006978914208D116F8060C2978884203D113
:1011F000A079A979884249D094F82210208C03F074
:101200007F0341EA0323984235DB002384F8203032
:1012100084F821302379C3F3C201CFB21FB1204635
:10122000FFF7A8FE27E003F0C003C02B19D01C4B2A
:1012300016F8060C1B78984213D1E378934210D02D
:101240007BB16379032262F307136371E170204677
:10125000FFF790FE134A2379127862F3C5032371D6
:1012600000E001276078FFF79FFE18B100210422FB
:1012700007F08AFE27B9243424365EE7BDE8F08102
:1012800020460021242207F07FFEF4E72279002384
:1012900063F3C50284F8203084F821302271EAE734
:1012A00005C0072004C00720431EDBB2FD2B9DBFF5
:1012B000024B187001200020704700BF05C00720B6
:1012C000014B1878704700BF05C007202DE9F74390
:1012D000044691461E469DF828500F46002963D0CB
:1012E000354B93F80080414560D00F2E5ED8002822
:1012F0005ED02022002107F047FEFF2F237914BF84
:1013000009F00302002262F38713032262F302034F
:101310002A4A6770127884F8008062F3C503284A6D
:101320002371137884F802800133DBB21370A37148
:101330000BAB019315B94FF0010818E0019AE07961
:101340001346526853F8081B00EB02085FFA88F84E
:10135000013DB8F1180F0193EDB206D808302044D2
:1013600007F0ECFD84F80780E4E74FF00008DFF8B1
:1013700054900123384689F80030FFF715FE0546E2
:10138000FFF724FE002389F80030637925B966F35E
:1013900007136371E57005E0AA7862F307136371C0
:1013A0006B78E370404603E0084601E00020FFE769
:1013B00003B0BDE8F08300BF05C0072004C00720CC
:1013C000F9C20720D4C20720124B012270B51A704F
:1013D00004461E4608B9002518E0FFF7ADFD054696
:1013E0000028F8D0237903F0C003402B06D0C02B8F
:1013F0000AD1E37853B162789A4207D061792046E6
:101400000909FFF719FE01E0802BF7D000233370A4
:10141000284670BDD4C2072082B0F0B51746421EE0
:10142000D2B28DB0FD2A04460D46139301D9002097
:101430005AE0002BFBD0159B002BF8D0179B002BFC
:10144000F5D0169B002BF2D0149B002BEFD000217F
:101450004822284807F098FD00219022264807F0EE
:1014600093FD00211022254807F08EFD00210C225B
:10147000234807F089FD00210C22224807F084FD53
:10148000214E224B1C703446214B1D7013AD0FCDE5
:101490000FC42B68002118221E48236007F074FD3A
:1014A00039461C48172209F005FA0020B3680146A6
:1014B00098470028BBD09DF8603013B9FFF716FDA0
:1014C00012E0154A0123019206220292009304A819
:1014D000FF210022FFF7FAFE0028A8D004A8FFF79A
:1014E00073FF0028A3D0E9E70DB0BDE8F04002B0DB
:1014F000704700BFFBC2072020C20720E9C20720B7
:10150000DDC20720C8C207200CC2072005C0072083
:10151000DCC20720B0C20720DBEF010030B5182B7A
:101520008DB005460C4615D8B2FA82F1181C18BFCA
:101530000120490981420DD08DE80D00294604A8FB
:1015400022469DF84030FFF7C1FE18B104A8FFF70E
:101550003BFF00E000200DB030BD13B5044610780D
:1015600052790B461209009203212246FFF7D6FF5B
:1015700002B010BD00231846044A12F823200AB115
:101580000130C0B20133042BF6D17047E9C2072005
:101590002DE9F04188B068460021202207F0F4FCD4
:1015A000A14B1B7803F0FF04002B40F03A819F4EC3
:1015B0006846336920219847002800F083809C4DBD
:1015C0006B8801336B80FFF7D5FF9DF80420A8726C
:1015D00002F00703032B04D0964A137843F001036B
:1015E00009E0954B1D789DF80230AB4205D1914A38
:1015F000137843F002031370E3E0C2F3C2029DF8D4
:1016000000E09DF80600D7B28C4904EB440313F8C0
:1016100001C0F4450AD10B445978814206D199782A
:101620000124CF1B18BF01279A7018E00134042C45
:10163000EAD183490B689A70804A587002F1090018
:10164000834283F800E040F0C9800A609DF8000002
:101650009DF80230834240F0C480002427469DF864
:101660000200FFF731FD9DF8022002709DF8022074
:10167000427000228270FFF7A9FC04B117B39DF8F5
:101680000030AB4200F09C809DF80170FF2F1BD111
:10169000336868462021984720B9664A137843F09A
:1016A000040313709DF8053003F00F02511C61F321
:1016B00003038DF80530C3F303139A4202DA684638
:1016C000FFF73AFC00247CE0BD422BD164B99DF8C1
:1016D00007304BB1336868462021984720B9554AF6
:1016E000137843F0040313709DF8043003F0C00333
:1016F000402B12D19DF8073013B95248182108E049
:101700004B480C216A46FFF728FF002858D10020DB
:1017100001466A46FFF721FF52E09DF80330002B97
:101720004ED1F4E7484B1B78002BCBD09DF80540F9
:1017300004F00F064FEA14184645C3DA013666F383
:1017400003043846FFF730FC8DF805409DF8034050
:10175000A5421ED19DF8041001F0C001402906D019
:10176000A1F180035A425A41144618B91BE00122E4
:10177000002854D0C029437805D19F4203D00033BC
:1017800018BF012300E00023134303F0010428B92C
:101790000BE0ACB910B9684641460FE043788DF8CC
:1017A0000330857804E0C02939D000258DF8035036
:1017B0006846FFF7C1FB1CB168462946FFF73CFCB1
:1017C0006C46FFF793FB204620490422FFF7ACFC50
:1017D00020461F490222FFF7A7FC22E003330B60DB
:1017E00034E785423FF439AFFFF76EFC0446FFF75C
:1017F000EDFB23783BB19DF80530A27803F00F0391
:1018000093423FF72AAF9DF8003023709DF80230D5
:1018100063709DF80530C3F30303A3701DE703460F
:10182000B2E708B0BDE8F081D4C207200CC207209F
:10183000C8C20720FAC2072005C00720DDC2072062
:1018400000C00720B0C20720DCC2072020C207204A
:10185000FBC2072000231846094A1A4452780AB1ED
:101860000130C0B22433902BF6D1064B5A780AB11E
:101870000130C0B293F825300BB10130C0B27047CF
:1018800020C20720FBC2072030B5414C4FF4803501
:10189000E561404CA060E068C506FCD43D48806826
:1018A000C0B20BB90C4665E00B46002A6AD0072A85
:1018B000384C0D782FDDA5604D78083AA5608D78FD
:1018C000A560CD78A5600D79A5604D79A5608D796D
:1018D000A56001F10805C979A1602E498C696407EA
:1018E000FBD58C681C708C685C708C689C708968F7
:1018F000D9702849CC68E406FBD48C68083303F817
:10190000044C8C6803F8034C8C6803F8024C89681B
:1019100003F8011C1BE0032A1BDDA5604D78043A87
:10192000A5608D78A5600D1DC978A1601949CC68A6
:10193000E406FBD48C68043303F8044C8C6803F889
:10194000034C8C6803F8024C896803F8011C294693
:10195000ABE70131A560013AE568ED06FCD40D4C1A
:101960000133A46803F8014C9FE7DD68ED06FCD461
:10197000084B9B68631A934204DA14F8015B054B29
:101980009D60F2E7024B4FF480329A6130BD00BF98
:1019900000C009200080084007B5002302A90122E9
:1019A00001F8013D00F01F001346FFF76DFF9DF8A1
:1019B000070003B05DF804FB07B502AB03F8011D97
:1019C00000F01F0019460122002340F02000FFF71D
:1019D0005BFF03B05DF804FB08B51720FFF7DCFFE1
:1019E000C0F3001008BD07207021FFF7E5BF0346D4
:1019F0000A46A02019460023FFF746BF08B500207D
:101A0000FFF7CAFFBDE8084000F0FE010020FFF725
:101A1000D3BF0000024B4FF08072DA61704700BF05
:101A200020C0092008B50020FFF7B6FF40F00101F3
:101A3000C9B20020FFF7C0FF024B4FF080729A61DD
:101A400008BD00BF20C0092007202021FFF7B4BF38
:101A50000021E1200A460B46FFF716BF37B50C46BA
:101A60000546FFF7F5FF21462846FFF7C0FF0D4B5F
:101A70004FF080721C469A610022ADF80620BDF836
:101A8000063001339BB2ADF8063033B94FF08073A6
:101A9000E361FFF7DDFF03B030BDFFF79DFF0028D6
:101AA000EDD0F3E720C0092008B51720FFF774FF39
:101AB00000F0010080F0010008BD07204021FFF781
:101AC0007BBF08B503460A46612019460123FFF78C
:101AD000DBFEC0F3420008BD0021E2200A460B46AF
:101AE000FFF7D2BE70B5064600200D461446FFF73C
:101AF00053FF16B100F0BF0002E040F04000C0B25A
:101B000015B100F0DF0101E040F0200114B101F057
:101B1000EF0101E041F010010020BDE87040FFF747
:101B20004BBF10B504460020FFF736FF14B900F094
:101B3000F7010DE0012C04D100F0FB0141F0080198
:101B400006E0022C14BF40F0080140F00C01C9B2BD
:101B50000020BDE81040FFF72FBF08B50020FFF7B9
:101B60001BFFBDE8084040F00201C9B20020FFF7AA
:101B700023BF08B50020FFF70FFFBDE8084000F0C5
:101B8000FD010020FFF718BF40F6DD13984206D88C
:101B900040F66213B0F5166F38BF184600E01846DD
:101BA000A0F51661C9B20520FFF706BF10B50446BF
:101BB0000620FFF7F1FEFA2C00F0D70102D141F028
:101BC000200104E0B4F5FA6F08BF41F008010620D7
:101BD000BDE81040FFF7F0BE10B504460620FFF741
:101BE000DBFE032C20F0060028BF032440EA44015A
:101BF000C9B20620BDE81040FFF7DEBEF9284FF05D
:101C0000FA0305D9B0F57A6F88BF4FF47A6000E027
:101C10001846B0FBF3F00F2900F1FF30C0B228BF27
:101C20000F2141EA0011C9B20420FFF7C5BE1130EF
:101C3000C0B2162804D8202928BF2021FFF7BCBE37
:101C40007047032804D0042814BF0321022100E0B8
:101C500001210320FFF7B0BE03460A463020194693
:101C60000023FFF711BE03460A462A201946002327
:101C7000FFF70ABE73B50E4615460446FFF72CFF64
:101C8000FFF7E6FE2B4B4FF08072DA61FFF771FF32
:101C900000210A460120FFF725FFFFF7A4FE0220DE
:101CA000FFF73FFF3046FFF76FFF2846FFF77EFF45
:101CB0000320FFF791FF02200321FFF77DFE0120A3
:101CC0000021FFF779FE4FF4FA700321FFF796FF2A
:101CD00021460020FFF7ABFF12200021FFF76CFE2A
:101CE00013200021FFF768FE14200021FFF764FE97
:101CF00015200021FFF760FE00211620FFF75CFE93
:101D00000D4B18681B79009005208DF80430FFF703
:101D100098FF68460521FFF79FFF68460521FFF7FA
:101D2000A2FFFFF71AFF4FF4FA6003F02FF902B099
:101D300070BD00BF20C00920E2EF010007B5094BCC
:101D4000002102AA186842F8041D0B4604F0D4FAD8
:101D5000019B1BB1044B4FF080521A6003B05DF839
:101D600004FB00BF4CC3072004ED00E070B5174E24
:101D7000326822B90320202104F0FDF93060144DAF
:101D80002A6822B90120202104F0F5F92860114CBD
:101D9000216821B90120032204F0EDF92060202000
:101DA00040F6C3114FF4FA62FFF764FFFFF73AFE03
:101DB00016200121084A03F0A7FA306828B12868E4
:101DC00018B12068003018BF012070BD48C307203B
:101DD00044C307204CC307203D1D010070B50646D3
:101DE0000379002203F0C003C02B0CBF0D4B0E4B38
:101DF00088B01D6831462846134604F0E4F90446CD
:101E000060B9224623466946284604F0B0FA2246C5
:101E100023462846314604F0D6F90446204608B049
:101E200070BD00BF44C3072048C3072038B504462F
:101E30000D46FFF745FA237883420AD0E37843B989
:101E400008F0BCFABD2300F0030000FB033003F0F0
:101E50009DF8FFF7DFFDFFF7D1FD2046A9B2FFF7A0
:101E6000FDFDFFF7F1FDFFF7DDFD04F05DFE02284B
:101E700006D1044B002118680A460B4604F03CFAD0
:101E8000012038BD4CC3072038B505460C46FFF786
:101E90000BFE48B1A1B22846FFF713FEFFF704FE80
:101EA00008B9FFF70AFE012038BD042938B50546F8
:101EB00003D1041C18BF012400E0002405F042F9FE
:101EC0002CB14FF47A72002306F01EFC28602046E5
:101ED00038BD000000B50C4B8DB009930B4B0C4A7C
:101EE0000B930C4B0A930CAB43F8102D0022049279
:101EF0000FCB8DE80F00084B0121084A6A20FFF73D
:101F00008BFA0DB05DF804FB6D1D0100891E010008
:101F1000AB1E01002D1E0100DD1D0100E7EF0100D9
:101F200008B504F001FE0F4B02285B6913D15A0279
:101F30000DD5FFF78FFC0C4B00284FF000011868FF
:101F400014BF01224FF0FF320B4604F010FABDE837
:101F50000840FFF71DBB5B02F9D5FFF77BFC0028AB
:101F6000F5D108BD00C009204CC30720F0B5864656
:101F700087B0104F4C1101F01F0501AE4570047081
:101F80000FCF0FC670463B686D00336006AB03EBA6
:101F9000840353F8143C0322CEF80430E30003F129
:101FA000804303F530331968AA4021EA02021A601F
:101FB00007B0F0BDECEF0100416840780A680123EA
:101FC000834022EA03030B607047436841785A69F3
:101FD00001238B40134214BF0120002070470000F2
:101FE00030B541780578054C490054F83520032375
:101FF0008B4022EA030344F8353030BD40C0024034
:1020000010B5094A04780123407821B152F8241010
:1020100083400B4304E052F82410834021EA030379
:1020200042F8243010BD00BF68C0024010B504461D
:10203000FFF7C2FF20460021FFF7E2FF2046FFF72F
:10204000CFFF204610BD30B504460D46134621791A
:102050002A46BDE83040006803F03ABD1FB50A4685
:1020600004AB0021022423F8041D017900940068C8
:1020700003F019FD9DF80C009DF80D3043EA002097
:1020800004B010BD10B504462A211922FFF7DBFF6A
:10209000206821790D2203F00AFDA0F12A0358429D
:1020A000584110BD08B50121FFF7D8FF102300B239
:1020B00090FBF3F008BD0000044A13881F2B9FBF5C
:1020C000581C1080024A42F82310704754C307205E
:1020D00058C30720144AF0B51488012C20D9134B9B
:1020E00000211F46661EB14206DA58681D6801319C
:1020F000401B43F8040BF5E77B6803EB5301002317
:1021000018469CB2B44209DA57F8245001338D4284
:1021100082BF012505FA04F42043F2E7044B18605E
:1021200000231380F0BD00BF54C3072058C307200D
:1021300050C3072008B50220012104F09BFF084B83
:1021400001209A6A22F007029A629A6A42F0060215
:102150009A62044AD36843F03003D36008BD00BFDD
:102160000080004000C0024008B5044A01F07F032F
:102170004171D25C0321FFF766FF08BD00F001004A
:1021800008B5044A01F07F038171D25C0221FFF798
:102190005AFF08BD00F0010038B5044600682179F7
:1021A00003F0A1FC054688B1204606210022FFF776
:1021B0004AFF204607210022FFF745FF20462E2137
:1021C000FFF7D2FF20462E21FFF7DAFF284638BD61
:1021D00010B504462021FFF7C7FF2046BDE8104098
:1021E0002021FFF7CDBF642370B5B1FBF3F404FBEE
:1021F0001311CCB20A21B4FBF1F501FB15413031CA
:10220000C9B20646FFF7BCFF092C8ABF05F13001B1
:1022100030463046BDE8704094BF2021C9B2FFF778
:10222000A3BF01207047000038B50D46044604F0F6
:102230006DFD05F00F032370114B15F0010F4FF0EA
:10224000010214BFDA619A61227812F0020F4FF096
:10225000020214BFDA619A61227812F0040F4FF083
:10226000100214BFDA619A61227812F0080F4FF45D
:10227000807214BFDA619A61BDE8384004F058BD3D
:1022800020C0092001207047022002F00FBF01206A
:1022900070470000044B5B69C3F38130C3F34123F3
:1022A00043EA8000704700BF20C0092010B50446F3
:1022B00001218122FFF7C7FE20682179012203F066
:1022C000F6FB10F0600F14BF0120002010BD38B5E0
:1022D00000210546FFF7C2FE8122012184B2284673
:1022E000FFF7B1FE24B2102094FBF0F005F0ACFF34
:1022F0004FF0765105F0FCFFA96805F0F1FE38BDFE
:1023000008B5FFF7E4FF054905F0F2FF044906F0C0
:10231000A3F84FF0844105F0E3FE08BD0000104132
:102320000000A040F0B50446ADF50B7D0F46164603
:1023300021461D4601A800230122009301F026FE3C
:10234000044670B91DB101A8294602F0A2F801A8FF
:10235000394632466B4601F0B2FE044601A802F04F
:1023600086F820460DF50B7DF0BD00007F2816D9BC
:1023700031B1FF2812D80A4B803833F8100070476B
:10238000074A8BB232F81120824203D001318029F2
:10239000F6D10B4603F18000C0B2704700207047B1
:1023A00060F201000023064A32F8132032B1904255
:1023B00001D00133F7E7034A32F81300704700BF3A
:1023C00060F3010080F0010010B501200C4603F01D
:1023D0006DFF2060003018BF012010BD0120704744
:1023E00010B5044604F0A0FB02280AD100210B46D8
:1023F00020464FF0FF3203F0BAFF431E58425841C7
:1024000010BD012010BD10B5044604F08DFB02285C
:1024100007D100212046BDE810400A460B4603F0D4
:10242000D2BE10BD10B5044603F0ECF924B1012C66
:1024300006D100F07BF901E000F0EEFC044600E07C
:10244000042403F0F7F9204610BD28B1012801D07B
:102450000420704700F018BA7047F8B507460E46DA
:1024600015461C4603F0CEF93FB1012F0CD1304682
:102470002946224600F010FA04E03046294622465A
:1024800000F016FD044600E0042403F0D3F92046D2
:10249000F8BDF8B507460E4615461C4603F0B2F9DE
:1024A0003FB1012F0CD130462946224600F042FAB6
:1024B00004E030462946224600F020FD044600E0B4
:1024C000042403F0B7F92046F8BD70B506460D4662
:1024D000144603F097F936B1012E0AD12846214659
:1024E00000F082FA03E02846214600F02BFD044666
:1024F00000E0042403F09EF9204670BD08B504F006
:1025000021FE4FF47A72002306F0FEF808BD0000A9
:1025100010B5044604F08EFF074BB0FBF3F0022326
:10252000B0FBF3F2944202D3044A136110BDB3F539
:10253000807FF9D00233F3E740420F0000000340F0
:10254000044B9860DA68D206FCD4024B9868C0B29B
:10255000704700BF0000034038B5FFF7CFFF00F51C
:10256000FA75FF20FFF7ECFFFF20FFF7E9FFFF28D8
:10257000044606D0FFF7C2FF0023994208BFA842D5
:10258000F2D3204638BD000038B5064C4FF0007538
:10259000E561FFF7E1FF044AA561137843F0010309
:1025A000137038BD20C0092006C0072070B505464D
:1025B0000E46FFF7A3FF00F16404FF20FFF7C0FF02
:1025C000FF2808D1FFF79AFF0023994208BFA042D5
:1025D000F3D3002070BDFE28FBD1102E06D928466B
:1025E0004FF40071002203F0ABF819E02C1DFF201E
:1025F000FFF7A6FF04F8040CFF20FFF7A1FF04F883
:10260000030CFF20FFF79CFF04F8020CFF20FFF7EC
:1026100097FF043404F8050C331D1B1BDD42E6D183
:10262000FF20FFF78DFFFF20FFF78AFF012070BD1D
:1026300070B506460D46FFF78FFFFF28044619D1F7
:102640002846FFF77DFFFD2D16D04FF4007122467E
:10265000304603F075F82046FFF772FF2046FFF77B
:102660006FFF2046FFF76CFF00F01F00431F58422A
:10267000584170BD002070BD012070BD020638B504
:1026800004460D4607D577200021FFF7F7FF012804
:1026900036D804F07F041B4B4FF000729A61DA6168
:1026A000FFF75AFFFF282AD12046FFF749FF280EDF
:1026B000FFF746FFC5F30740FFF742FFC5F30720CA
:1026C000FFF73EFFE8B2FFF73BFF402C04D0482C59
:1026D0000CBF8720012000E09520FFF731FF4C2C34
:1026E00002D1FF20FFF72CFF0A24FF20FFF728FF6D
:1026F000030605D5013C14F0FF04F6D138BDFF20D8
:1027000038BD00BF20C00920064A0749137849692F
:10271000DBB2490154BF03F0FD0343F00303137020
:10272000704700BF06C0072020C009202DE9F347ED
:10273000FFF7EAFF514B1A781E4612F0020F01D044
:10274000187896E00120FFF7E3FE0A24FF20013C01
:10275000FFF7F6FE14F0FF04F8D1494D4FF0007377
:10276000EB6140202146FFF789FF012801D00024BA
:102770006EE0FFF7C3FE4FF4D57100F57A7A48207A
:10278000FFF77CFF01283DD1FF20FFF7D9FE01AF05
:1027900038550134042CF7D19DF80630012BE6D1D1
:1027A0009DF80730AA2BE2D1FFF7A8FE4FF00009F1
:1027B000494508BF5045D04606D3FFF79FFE49451F
:1027C00008BF4045D3D207E0E9204FF08041FFF732
:1027D00055FF0028E8D1F0E77A200021FFF74EFFEF
:1027E0000028C4D10446FF20FFF7AAFE3855013463
:1027F000042CF8D19DF8043013F0400F14BF0C24C2
:10280000042425E02146E920FFF738FF022835BFE0
:1028100002240124E9274127FFF770FE4FF0000949
:10282000494508BF5045D0460BD3FFF767FE4945E1
:1028300008BF40450CD34FF400715020FFF71EFF36
:1028400006E038460021FFF719FF0028E4D1ECE745
:102850000C4B1C704FF00073AB613CB13378182007
:1028600003F0FE033370FFF753FE01E0FFF78CFE29
:102870003078C0B202B0BDE8F08700BF06C00720C4
:1028800020C00920D8C3072008B5FFF73DFF014B42
:10289000187808BD06C00720F8B5144607460E464E
:1028A000FFF732FF002C3AD01F4B1B78DB0738D4E0
:1028B0001E4B4FF00072DA611D4A1D46127812F06D
:1028C000080F08BF7602012C0DD151203146FFF7C9
:1028D000D5FEE8B938464FF40071FFF767FEB0FA4D
:1028E00080F4640914E052203146FFF7C7FE78B93E
:1028F00038464FF40071FFF759FE28B1013C14F03F
:10290000FF0407F50077F3D14C200021FFF7B6FE56
:102910004FF00073201CAB6118BF0120F8BD0420EC
:10292000F8BD0320F8BD00BF06C0072020C0092065
:10293000D8C30720F8B5144607460E46FFF7E4FE55
:10294000002C45D0254B1A78D20743D41B785B075F
:1029500042D4234B4FF00072DA61224A1D461278AE
:1029600012F0080F08BF7602012C0CD15820314616
:10297000FFF784FE28BB3846FE21FFF759FEB0FA68
:1029800080F464091DE012F0060F03D0D720214621
:10299000FFF774FE59203146FFF770FE88B93846BC
:1029A000FC21FFF745FE28B1013C14F0FF0407F5B8
:1029B0000077F4D10020FD21FFF73AFE002808BF80
:1029C00001244FF00073201CAB6118BF0120F8BD3B
:1029D0000420F8BD0320F8BD0220F8BD06C0072082
:1029E00020C00920D8C307207FB504460D46FFF755
:1029F0008BFE052C1AD12B78012B00F0FD8003D320
:102A0000022B0BD00420FAE07E4B586910F0806452
:102A100040F0F280FFF7B8FD2046F0E0794B5B69AB
:102A200083F08063C3F380636B70E5E0764B1B78C3
:102A3000DB0700F1E3800E2C00F2D880DFE804F021
:102A400008124F53D6D6D6D6D6D6A3A8AAB4C40059
:102A50006C4B4FF00072DA61FFF77EFDFF3818BF54
:102A60000120C4E049200021FFF708FE044608B118
:102A70000120BCE068461021FFF798FD0028F7D040
:102A80009DF800309DF809009B09012B9DF8083046
:102A900005D1013000EB03239BB29B021CE09DF8A3
:102AA0000710890001EB93135A1C9DF806309DF81E
:102AB000051003F0030302EB83239DF80A2001F0C5
:102AC0000F0101EBD212911C00F0030201EB420254
:102AD000D2B29BB2093A93402B60204687E04FF474
:102AE00000732B8052E0494E337803F0040303F067
:102AF000FF01DBB1CD200021FFF7C0FD0028B7D1D9
:102B0000FF20FFF71DFD68461021FFF74FFD00284D
:102B1000AED03024FF20FFF713FD601E10F0FF043D
:102B2000F8D19DF80A2010231209D4E74920FFF7B5
:102B3000A5FD044600289BD168461021FFF736FD0D
:102B4000002895D031789DF80A2001F0020101F0AB
:102B5000FF009DF80B3051B102F03F02DB0903EB9F
:102B600042039DF80D2001339209013AB3E7C2F305
:102B7000840103F003045A0902EBC402531C01FB55
:102B800003332B6033E0214B1B782B7000202EE0A9
:102B9000492000E04A200021FFF770FD00287FF463
:102BA00067AF284610211BE07A200021FFF766FD61
:102BB00000287FF45DAF2C1DFF20FFF7C1FC05F856
:102BC000010BA542F8D1E1E7CD200021FFF756FD2A
:102BD00000287FF44DAFFF20FFF7B2FC28464021CC
:102BE000FFF7E4FCB0FA80F0400900E00420054B58
:102BF0004FF000729A6102E0002000E0032004B070
:102C000070BD00BF20C0092006C00720D8C3072020
:102C1000054B1B78253BDBB2032B9ABF034A52F8C6
:102C200023000020704700BFDCC3072048F50100E7
:102C30001B4B2DE9F0411D880646B5F5007F0F4678
:102C4000144602D1084611460AE0B5F5807F09D145
:102C5000084611462A46B04707F5807004F5807192
:102C60002A4617E0B5F5047F05D1510A3846890296
:102C70004FF400720EE0B5F5847F0FD1140A0846B8
:102C80004FF480726102B047611C07F58070490201
:102C90004FF480723346BDE8F0411847BDE8F0813B
:102CA000DAC30720034610B500295DDD07291A782D
:102CB0002E4C2FDDA2605A780839A2609A78A26063
:102CC000DA78A2601A79A2605A79A2609A79A26031
:102CD00003F10802DB79A360244B9C696407FBD5F0
:102CE0009C6804709C6844709C6884709B68C37086
:102CF0001E4BDC68E406FBD49C68083000F8044CEA
:102D00009C6800F8034C9C6800F8024C9B6800F833
:102D1000013C1BE003291BDDA2605A780439A26044
:102D20009A78A2601A1DDB78A360104BDC68E40679
:102D3000FBD49C68043000F8044C9C6800F8034CF9
:102D40009C6800F8024C9B6800F8013C1346ABE716
:102D50000133A2600139E268D206FCD4034A013093
:102D6000926800F8012C9FE710BD00BF00000340EF
:102D700007B50B0C8DF804008DF805308DF80710A1
:102D80000B0A01A804218DF80630FFF78BFF03B072
:102D90005DF804FBF7B5164607460E4C40250323A5
:102DA000E5618DF804300B0C8DF805308DF80710B7
:102DB0000B0A01A804218DF80630FFF773FF38468F
:102DC0003146002202F0BCFCA561A561A56103B0FB
:102DD000F0BD00BF00C009200D4B4022DA610D4B51
:102DE000D7229A60DA68D106FCD40A4B9B68094B5B
:102DF000FF229A60DA68D206FCD4064B9868030674
:102E0000F5D5034B40229A61C0B29A619A6170472E
:102E100000C0092000000340F7B5FFF7DDFF1F4C9D
:102E2000002323801E4B1F4E40271A889B78F76192
:102E30000546032101A8ADF804208DF80630FFF700
:102E400031FF9DF805209DF806301F2AB761B76154
:102E5000B7611CD1A3F12502032A18D8124A252BE9
:102E6000137005F0010006D1002814BF4FF48073E1
:102E70004FF4847305E0002814BF4FF400734FF43F
:102E800004732380FFF7C4FE084B400A18602088B3
:102E9000B0FA80F0400903B0F0BD00BFDAC30720EC
:102EA00040F5010000C00920DCC30720E0C3072073
:102EB0002DE9F0418B1817460E4A013B12688046F7
:102EC000934214D84D024446FFF786FF0026C8EB14
:102ED0000502BE42224407DA21460748FFF7A8FE52
:102EE00004F500740136F2E70020BDE8F08101200E
:102EF000BDE8F081E0C30720952D01002DE9F041E8
:102F00008B1817460D4A013B12688046934212D82F
:102F100004464D020026C8EB0502BE42224407DAF1
:102F200021460748FFF784FE04F500740136F2E7F6
:102F30000020BDE8F0810120BDE8F081E0C307205A
:102F40002530010010B50C46072805D8DFE800F051
:102F500006090E1214141414042010BDFFF73CFFD0
:102F60000AE0FFF755FE400A206005E04FF40073C9
:102F70000B8001E001230B60002010BD70B590B004
:102F800003466A466E4600F14005144618685968C3
:102F9000083303C4AB422246F7D1084D4024EC610C
:102FA0009B200021FFF7E4FE30462146FFF77AFE22
:102FB000AC61AC61AC6110B070BD00BF00C0092055
:102FC00070B50646074D402477200021EC61FFF7DD
:102FD000CFFE30462146FFF765FEAC61AC61AC61C7
:102FE00070BD00BF00C00920064B10B51C8834F02E
:102FF0001F0404D0FFF70CFEB0FBF4F010BD204618
:1030000010BD00BFDAC30720014B1888704700BF0E
:10301000DAC30720024B1878003018BF0120704730
:10302000DAC307202DE9F7434FF0FF330F469046F0
:1030300001938146FFF7D0FEFFF7ECFF0646B0B1E3
:10304000194C4025194BE5611B880320B3F5847F9B
:103050000CBF4FF480714FF400713943FFF788FEC5
:1030600001A80421FFF71EFEA561A561A5610E4C14
:10307000402382203946E361FFF77AFE4846414605
:10308000012202F05DFB3EB1019B02A8013340F832
:10309000043D0421FFF706FE4023A361A361A36161
:1030A00003B0BDE8F08300BF00C00920DAC30720E9
:1030B00037B5074B074C1868402501900421E5619E
:1030C00001A8FFF7EFFDA561A561A56103B030BDC3
:1030D00043F5010000C009201FB501A802F05EFA07
:1030E0009DF809309DF8082003F00F0302F01F023D
:1030F0005B0543EA02419DF806309DF8040003F0A9
:103100001F0341EAC3229DF80530C0F3440003F0D9
:103110003F0342EA4313BDF80A201843520602F166
:103120000842104305B05DF804FB30B504460D1F9E
:10313000131B0344032B04D955F8043F44F8043B04
:10314000F6E722F00303194402F00302013B18449E
:103150000A44914204D011F8013B00F8013FF8E71E
:1031600030BD0244904202D000F8011BFAE77047DC
:1031700000F10B010023DA0142EA530310F8012B9E
:103180001344884203F0FF03F5D1184670470268E4
:1031900010B50446BAB11346184613F8011B1F298F
:1031A00002D93A29F8D101E0002010BD114611F8EA
:1031B000013B884207D1303BD9B2012903D8023202
:1031C0001846226010BD4FF0FF3010BDF8B50379EE
:1031D00004460BB90020F8BD056B00F134073946F1
:1031E00040782A460123FFF754F990B9636AE269EF
:1031F000EB1A93422071EDD2E678012EEAD9E36909
:1032000060781D4439462A460123FFF742F9013E02
:10321000F3E70120F8BD0000F8B50446FFF7D6FF3C
:1032200005468DBB2378032B26D16679012E23D149
:1032300004F13407384629464FF40072FFF791FF36
:103240004AF65523A4F83232104B226A636303F125
:10325000FF5303F500532033C4F818326369013279
:10326000C4F81C3223692263C4F8203260783946DE
:103270003346FFF70EF96571002160780A46FFF7C3
:1032800024F9003018BF0120F8BD00BF525261413F
:10329000036B70B5994205460E4610D0FFF796FFB6
:1032A000044608B101240BE0687805F13401324688
:1032B0000123FFF7D2F80028F4D12E6300E00024A8
:1032C000204670BD002310B503714FF0FF33036338
:1032D0000446FFF7DDFFA0B94AF65523B4F83222C1
:1032E0009A4210D1D4F86A30084A23F07F439342BF
:1032F0000AD0D4F8860020F07F40801A18BF012041
:1033000010BD032010BD022010BD00BF4641540077
:10331000F0B50023036085B0074608461546FFF761
:1033200036FF061EC0F2F2807E4B53F82640002C7A
:1033300000F0EE80E068FFF753F8002800F0EA8024
:103340003C60237883B16078FFF77FF8C1070BD426
:10335000002D00F0D98000F0040303F0FF00002BE3
:1033600000F0DD800A20DAE00023F0B22370607004
:10337000FFF758F8C20700F1CF800DB14307F1D431
:1033800020460021FFF79EFF01281CD12146002284
:1033900091F8F6310BB1D1F8FA314DF82230013203
:1033A000042A01F11001F3D100265DF826502DB159
:1033B00020462946FFF786FF08B90BE002200136B8
:1033C000042EF2D100E00025032800F0A78008B108
:1033D0000D20A4E0B4F83F30B3F5007FF8D1B4F885
:1033E0004A0000B9A06D94F844E0E0610EF1FF33AB
:1033F000012B84F803E0EBD894F84130A370002B44
:10340000E6D05A1E1A42E3D1B4F845C01CF00F0FA3
:10341000A4F808C0DCD1B4F8472002B9626DB4F852
:1034200042100029D4D00EFB00FE01EB1C1777449C
:10343000BA42CDD3D21BB2FBF3F3002BC8D040F677
:10344000F572934206D94FF6F576B3428CBF032648
:10345000022600E00126023329442F44032EA361F3
:1034600025626162E76206D1BCF1000FB0D1226E25
:103470009B00A26210E0BCF1000FA9D0022E4FEA1F
:1034800043020CBF1346D218714418BF03F0010366
:10349000A16218BF03EB520303F2FF13B0EB532FEB
:1034A00096D34FF0FF3363612361032E4FF0800307
:1034B000637122D1B4F86430012B1ED12046691CFF
:1034C000FFF7E6FEC8B94AF65523B4F83222607118
:1034D0009A4212D1626B144B9A420ED103F1FF5300
:1034E000D4F8182203F5005320339A4201BFD4F8D0
:1034F0001C326361D4F8203223610C4A2670138891
:1035000001339BB21380E380002008E00B2006E02B
:103510000C2004E00F2002E0032000E0012005B0B1
:10352000F0BD00BFE8C3072052526141E4C3072049
:1035300010B50446A8B103689BB11A788AB1D9883E
:10354000828891420DD1D868FEF74AFF58B12368AE
:103550005878FEF77AFF10F0010F14BF0320002007
:1035600010BD092010BD0F2010BD50B1A1F10B03FB
:10357000012B06D9092904D00F2902D0C068FEF713
:1035800042BF704783690239023B99423DBF82784E
:10359000C36A02FB0130002070470129F8B50746D5
:1035A0000C464BD98369994248D20378022B29D023
:1035B000032B34D0012B41D101EB5106416A01EBC1
:1035C0005621FFF765FE10B14FF0FF30F8BD796A64
:1035D000C6F3080301363B44384601EB562193F805
:1035E0003450FFF755FE0028EED1C6F308063E44DE
:1035F00096F83400E30745EA00204CBF0009C0F309
:103600000B00F8BD416A01EB1421FFF741FE0028D1
:10361000DAD1630003F4FF73FE18B08EF8BD416A7F
:1036200001EBD411FFF734FE0028CDD1A40004F43F
:10363000FE743C44606B20F07040F8BD0120F8BD82
:10364000F8B5054684680E46012CE98001D10220B8
:10365000F8BD03689A699442F9D254B91A78032ADA
:1036600001D19A6A22B91A899642F0D2986A17E073
:10367000144621469F783F01BE420DD32868FFF7CC
:103680008CFF431C01461AD00128E0D92B689B69A6
:103690009842DCD2F61BEFE728680C46FFF772FF72
:1036A000EC600028D3D02B6800EB161006F00F0654
:1036B00003EB4616343628616E610020F8BD012008
:1036C000F8BD0129F8B505460C4616465FD9836951
:1036D00099425CD20378022B38D0032B42D0012BC5
:1036E00051D101EB5107416A01EB5721FFF7D0FDA2
:1036F000002849D1C7F3080314F001042B4418BF74
:1037000093F83410F2B21EBF01F00F0141EA021229
:10371000D2B2696A83F83420013701232B7128461D
:1037200001EB5721FFF7B4FD70BBC7F308072F4427
:1037300014B1C6F3071606E097F83430C6F3032633
:1037400023F00F031E4387F834601DE0416A01EB4C
:103750001421FFF79DFDB8B9640004F4FF742C44F4
:10376000A68611E0416A01EBD411FFF791FD58B92B
:10377000A40004F4FE7430342C44636803F07043F6
:103780001E43666000E0022001232B71F8BD022079
:10379000F8BDF8B505460F4631B9066996B183699B
:1037A0009E4228BF01260EE0FFF7F7FE01283FD911
:1037B000441C02D14FF0FF30F8BDAB69984238D3BA
:1037C0003E4600E001263446AB6901349C4204D3F6
:1037D000012E01D80020F8BD022428462146FFF71B
:1037E000DCFE30B1411C24D0012822D0B442EBD100
:1037F000F0E7284621466FF07042FFF762FFA8B954
:1038000057B96B692C615A1C0ED0013B6B616B7907
:1038100043F001036B7107E0284639462246FFF763
:1038200050FF0028EDD001E02046F8BD0128C1D0AE
:103830000120F8BD2DE9F843C68804460136B3B22D
:103840000F4613B90420BDE8F8830369002BF9D0B3
:1038500016F00F0859D1C16801330361006819B926
:1038600003899E42EED250E08378013B13EA16139F
:103870004BD1FFF792FE0128054602D80220BDE891
:10388000F883421C02D10120BDE8F88320688369D7
:103890009D4234D3002FD5D0E168FFF77AFF05466B
:1038A00000283BD00128E9D0431CECD02068FFF76A
:1038B0008DFC07460028E6D12068394634304FF4A5
:1038C0000072FFF74EFCD4F8009029464846FFF7F7
:1038D00059FEC9F8300023689A7897420CD2012229
:1038E0001A712068FFF772FC0028CCD122680137DA
:1038F000136B01331363EEE71A6BD71B1F63E5608D
:1039000020682946FFF73EFE20612368E68003EB2E
:103910004813343363610020BDE8F8830720BDE815
:10392000F88300002DE9F74F00210646FFF788FED7
:10393000002840F087804FF6FF734FF0FF084446A1
:10394000338430683169FFF7A3FC00287AD17569A8
:103950002B78002B6DD0E52BE97A5FD00F0701F0B3
:103960003F0202D50F2A59D101E00F2A42D1D6F8E1
:103970001C90B9F1000F55D0580606D503F0BF04CE
:10398000F38895F80D80338401E0A34249D16B7B25
:10399000434546D12F784FF0000A27F040077B1EA1
:1039A0000D275F430123294A1AF80220A85A83B140
:1039B000FEF7F8FC7F2F019033D839F81700FEF797
:1039C000F1FC019A07F1010B8242034629D15F46BF
:1039D00003E04FF6FF72904223D10AF1010ABAF1D7
:1039E0000D0FE0D12A78510629D543B339F81730A5
:1039F0002BB316E024B92846FFF7BAFB80451AD04E
:103A0000B369DA7AD20709D405F10B00854214D0E4
:103A100015F8011B13F8012B9142F7D04FF6FF73F5
:103A20003384FF2430460021FFF704FF002888D0AC
:103A300008E0042006E0204604E0002002E0013C0B
:103A4000E4B2EFE703B0BDE8F08F00BF48F6010035
:103A50002DE9F74F0B7807462F2B884601D05C2BBA
:103A600001D108F101080024BC6098F800301F2B38
:103A70005DD838462146FFF7E3FD7C610CE1013358
:103A800039F81320202AFAD02E2AF8D00BB144F0AE
:103A90000304524632F8021D2E2901D0013DF9D10E
:103AA0004FF0000B5E464FF0080A39F813005A1C1D
:103AB000002840F08A80BB691A78E52A04BF0522F5
:103AC0001A70BAF1080F04BFB600F6B206F00C0384
:103AD0000C2B00F0C58006F00302032A00F0C08022
:103AE000A10709D406F00306012E08BF44F0100414
:103AF000042B08BF44F00804BB693846DC72FFF7AA
:103B000011FFBB69DB7A002840F0AD805A0700F155
:103B1000C3807A69D37ADB0640F1AC803968538B75
:103B20000978032904BF928A43EA0243BB6098F8EC
:103B3000003044462F2B08F10108F8D05C2BF6D05A
:103B4000D7F81C9004F1FF3AA9F1020600251AF8F3
:103B5000010F05F101081F281AD92F2818D05C2859
:103B600016D0B8F1810F00F087800121FEF7FEFB2F
:103B7000002800F081807F2806D8494A12F8013FCA
:103B800013B18342FAD177E026F8020F4546DEE70B
:103B90002028A04409EB450334BF04240024002D51
:103BA0006AD033F8022D202A01D02E2A01D1013DFE
:103BB000F5E7002629F81560B86920210B22FFF7E8
:103BC000D0FA09EB450A33465AE7202803D02E28BD
:103BD00005D1AA4252D044F00304134665E7D34509
:103BE00002D2AA4216D149E0BAF10B0F04D144F037
:103BF00003044FF00B0A5EE7AA4203D044F003042B
:103C00003FF659AFB600F6B22A464FF00B0A4FF016
:103C1000080BE2E77F280CD900210192FEF7A6FBF2
:103C2000019A18B11F4B184410F8800C44F002049C
:103C300028B11D4911F8013F2BB18342FAD144F05C
:103C400003045F2006E0A0F141039BB2192B19D8B1
:103C500046F00206BB6903F80B000BF1010BBCE751
:103C600044F002043CE7042816D113F0040F08BF07
:103C7000052011E005200FE006200DE0BAF10B0F42
:103C8000C0D1B4E7A0F161039BB2192B9EBF2038CD
:103C900046F0010680B2DDE703B0BDE8F08F00BF5B
:103CA00083F50100C8F501008CF50100F0B58669C7
:103CB00087B0C4690546314603A80C22FFF735FAE0
:103CC0009DF81730DB075ED50023F3720127EB6107
:103CD000304603A90B22FFF728FA052F15D93B46DA
:103CE000A01E30F8022F8AB1102102F0010E0EEB57
:103CF000430313F4803F1CBF83F4883383F0210314
:103D000001394FEA5202F0D1EBE73B46072203F0BC
:103D10000F0000F13001392988BF00F13701013A65
:103D200006A810441B0900F8131CF0D106A97E2038
:103D3000114401F8140C934201D1334404E0F15CC6
:103D40002029FAD00133F6E7072A9DBF06A9891872
:103D500011F8141C202103F8011BA3EB060198BFE6
:103D600001320729F0D92846FFF7DCFD20B90137D9
:103D7000642FADD1072099E0042840F097809DF88A
:103D80001730F372EC619DF817309B0701D40124C2
:103D900009E0002334F813200AB10133FAE719339C
:103DA0000D24B3FBF4F428460021FFF749FCA8B921
:103DB000064628682969FFF76BFA78B96B691B78A2
:103DC000E52B00D01BB90136A64201D10AE0064618
:103DD00028460121FFF72EFD0028EAD0042808BF5D
:103DE000072063E0013E47D0E9882846891BFFF79A
:103DF00027FC00285AD1A869FFF7BAF904462868B9
:103E00002969FFF745FA0346002B4FD16A690F2154
:103E1000F7B2D5F81CE0781ED1720D214143184647
:103E20005473137353834FF6FF7C6045DFF880C0F3
:103E300018BF3EF8110013F80CC003F1010322F87B
:103E40000C004FF6FF7C18BF0131002808BF604608
:103E50000D2BE8D1604502D03EF811300BB947F088
:103E6000400717702B6801221A7128460021FFF7BE
:103E7000E1FCD8B9013EC2D128682969FFF708FAE8
:103E8000044690B9686921462022FFF76AF90B229F
:103E90006869A969FFF749F9AB696A69DB7A03F0D8
:103EA000180313732B6801221A71204607B0F0BD66
:103EB00048F60100012970B504460D4601D80220DC
:103EC00070BD83699942FAD2A3699D4205D220460A
:103ED0002946FFF762FB064608B9002070BD01289D
:103EE000EDD0411C11D0204629460022FFF7E9FB06
:103EF00060B9636935465A1C1FBF0133636163793A
:103F000043F0010318BF6371DEE7012070BD0000BC
:103F1000F0B585B0019004A840F8041D0091164644
:103F2000FFF735F9041E2ADB174B53F824501F46C0
:103F30003DB1E868FEF752FA08B9022022E00023FA
:103F40002B70019921B9019847F8240048B919E06C
:103F5000002301F80C3BE0B2FEF736FA0028ECD063
:103F6000F1E7012E0DD16946002201A8FFF7D0F933
:103F7000044601982146FFF7F8FA204602E00B209C
:103F800000E0002005B0F0BDE8C307202DE9F043B4
:103F9000D1B0019190460546002800F084800023AE
:103FA000036001A906A802F01E02FFF7B1F9064658
:103FB000002872D103AB0C9306A80FAB01990D93A7
:103FC000FFF746FD0B9C10B9002C08BF062018F027
:103FD0001C0F08F01F073BD048B1042802D106A8E7
:103FE000FFF764FE47F008070B9C38B162E0E37A04
:103FF00013F0110F5DD118F0040F56D1380731D5E9
:10400000FFF76AF80023C4F80E000698E372E36134
:104010000278B4F81A80032A08BFA28A6383A382B5
:1040200008BF48EA024801230371B8F1000F19D014
:104030004146D0F83090FFF73DFF00283AD106986E
:1040400008F1FF3303614946FFF722F950B131E02F
:1040500000282FD1E37AD90629D418F0020F01D015
:10406000DA0726D43B07069B48BF47F020071A6BA8
:10407000AF71EA610022EA712C621978628B032920
:1040800004BFA18A42EA01422A61E2692B60DB880F
:10409000EA600022AA60AA61AB8006983146FFF769
:1040A00064FA304608E0092006E0082002E0042017
:1040B00000E007200646F0E751B0BDE8F0832DE9A7
:1040C000F84F98460023C8F8003006460F461446BD
:1040D000FFF72EFA054630B130682946FFF745FA5A
:1040E0002846BDE8F88FF17929B13068FFF73DFA2D
:1040F000F079BDE8F88FB379D90706D43068072185
:10410000FFF733FA0720BDE8F88FF368B068181A94
:10411000844228BF0446002C00F08880B368C3F3B3
:104120000802002A69D130688578013D05EA5325E7
:1041300015F0FF050CD10BB9306902E07169FFF78A
:104140002CFA012801D8022453E0421C50D070619F
:10415000D6F800B071695846FFF714FA18B902246E
:10416000F471584663E05FEA542900EB050A23D056
:104170009BF8023009EB05029A4288BFC5EB0309A0
:104180009BF80100394652465FFA89F3FEF765F95C
:1041900070BBB3795B060CD5B069CAEB000048452B
:1041A00007D207EB402006F124014FF40072FEF71E
:1041B000BCFF4FEA49252EE0B26952451BD0B379C6
:1041C00006F1240513F0400F0AD09BF801002946A0
:1041D0000123FEF75EF958B9B37923F04003B371B8
:1041E00033682946587852460123FEF736F910B154
:1041F0000124F4711AE0C6F818A0B1683846C1F37A
:104200000801C1F50075A54228BF25463144243177
:104210002A46FEF78AFFB3682F442B44B360D8F8D0
:104220000030641B2B44C8F8003074E73068214626
:10423000FFF79BF92046BDE8F88F2DE9F84F984627
:104240000023C8F8003004460F461646FFF770F901
:10425000054600285ED1E17929B12068FFF785F98C
:10426000E079BDE8F88FA379990706D42068072183
:10427000FFF77BF90720BDE8F88FA368DE4228BF6F
:10428000002630E0750A00EB090A78D09BF802306E
:1042900005EB09029A4288BFC9EB03059BF80100B0
:1042A00039465246EBB2FEF7F4F8002877D1A169FF
:1042B000CAEB0101A9420BD204F1240007EB412112
:1042C0004FF40072FEF731FFA37923F04003A3718E
:1042D0006D02A3682F442B44A360D8F80030761BEE
:1042E0002B44C8F8003016B3A368C3F30802002AB1
:1042F00059D1206890F8029009F1FF3909EA532951
:1043000019F0FF091FD163B9216959B1012914D1ED
:104310000225E57120682946FFF727F92846BDE800
:10432000F88F6169FFF735FA01460028EED1A368DE
:10433000E26893424AD9E36048E04A1C2FD02369DF
:10434000616103B92161A3795B060CD5214651F85F
:10435000243BA26958780123FEF79BF8F8B9A379AA
:1043600023F04003A371D4F800B061695846FFF709
:1043700009F9002886D10225E5715846CBE7A369E3
:1043800053450ED0A268E3689A420AD29BF8010016
:1043900004F1240152460123FEF75FF808B101251C
:1043A000B7E7C4F818A0A0683946C0F30800C0F504
:1043B0000075B54228BF3546204424302A46FEF712
:1043C000B4FEA37943F04003A37182E7A379206888
:1043D00043F02003A3710021FFF7C7F80020BDE8D8
:1043E000F88F70B50446FFF7A3F80546002838D1CA
:1043F000A3799A0635D55B0612D5214651F8243BA0
:10440000A26958780123FEF744F828B120680121F9
:10441000FFF7ABF8012070BDA37923F04003A3712F
:104420002068E169FEF734FF0546D0B9266AF37AC1
:1044300043F02003F372E368F361236973831B0C79
:10444000B382FEF749FE7582C6F81600A3790122F1
:1044500023F02003A37123681A712068FEF7DCFEA5
:10446000054620682946FFF780F8284670BD38B514
:104470000546FFF7B6FF044648B92846FFF758F847
:10448000044620B9286821462C60FFF76EF82046C4
:1044900038BDF8B504460E46FFF74AF8054678BB26
:1044A000E17921B12068FFF760F8E079F8BDE368B1
:1044B0009E4204D9A27912F0020F08BF1E460022C4
:1044C000A368A2600EB9002655E0206885786D02C9
:1044D0006BB1013B721EB2FBF5F2B3FBF5F18A4200
:1044E00005D36A421340A360F61A616912E021699C
:1044F00079B9FFF74EF90128014607D10225E57188
:1045000020682946FFF731F82846F8BD013052D01F
:10451000216161610029D6D0AE421AD9A379206801
:104520009A0704D5FFF735F9014618B910E0FFF7EF
:1045300034F801464B1C3ED00129DFD923689B6922
:104540009942DBD2A36861612B44A360761BE3E749
:104550002E46A3683344A360C6F30803002BB2D0F1
:1045600027683846FFF70EF818B90225E571384676
:10457000C7E700EB5626A368C3F30803F3B1A269AB
:1045800096421BD0A37904F1240513F0400F0AD002
:104590002368294658780123FDF77BFF58B9A37992
:1045A00023F04003A371236829465878324601233B
:1045B000FDF753FF08B10125A1E7A661A368E268F2
:1045C0002068934284BFE360A3794FF0000184BF69
:1045D00043F02003A371FEF7C8FF0020F8BD2DE9CA
:1045E000F34702AB43F8040D1446104688460022F8
:1045F0001946FEF78DFE2468054600284CD1A769B0
:104600006369BA1E934202D8C8F8003044E094F8B7
:104610000090B9F1010F10D1064602272046394615
:10462000FEF7BBFF431C2BD001282BD000B901366D
:10463000A36901379F42F1D327E0034602460646AD
:10464000616A52B9204601F1010AFEF721FED8B98C
:10465000514604F134034FF40072B9F1020F05D151
:10466000188800B901360233023A06E0186820F0D3
:10467000704000B901360433043A013FE1D104E04F
:10468000012502E0022500E005466379666143F0FA
:1046900001036371C8F8006020462946FEF765FFF4
:1046A000284602B0BDE8F0872DE9F04F89B008AB8D
:1046B00043F80C0D18460E461546FEF768FD002817
:1046C000C0F20A82012E00F209826B1E2B4040F0DC
:1046D0000582BE4A52F82090B9F1000F00F0008226
:1046E000C7B289F800303846FDF79CFEC20700F1DA
:1046F000F981430700F1F8813846012107AAFDF747
:10470000E4FE08B101203FE2079B7F2BFAD9002E7F
:1047100014BF00223F229B1A019207936DB94FF4F8
:10472000FA62B3FBF2F2AA4931F815108A4201D2BB
:104730000135F8E7A74A32F815506D0A03D0812DEC
:1047400028BF802500E00125B3FBF5F440F6F572A3
:10475000944240F205824FF6F572944240F20F8285
:10476000A40004F207240022640A4FF00308039215
:104770004FF0200B019A5A440292039A02EB040A6A
:10478000029A9244019AAA1A5244934201D20E20EC
:10479000FAE13846032106AAFDF797FE20B9069BE9
:1047A000013BB3F5004F01D301230693069AB8F1FC
:1047B000030F02F1FF335344C2F1000203EA020384
:1047C00008BF029ACAEB030304BFD2189B440693A6
:1047D00008BF1346079A14BFE41802930399CBEB62
:1047E00002031B1B5B1AB3FBF5F3B8F1020F049332
:1047F00005D140F6F57304999942C8D916E0B8F18D
:10480000030F05D14FF6F573049A9A42BFD987E199
:10481000B8F1010F0AD1B2F5803F34BF4FF0010A61
:104820004FF0060A002E40F0618107E0B2F5803FAC
:1048300034BF4FF0040A4FF0060AC6BB09F1340634
:10484000304600214FF40072FEF78BFCFE21DDF8AC
:104850001CE089F8F7110199012301EB0E0043F6E2
:10486000C161B0FBF1F18808069189F8F9113F2187
:10487000C9F8FA114AF6552140F03F00002289F8A4
:10488000F801A9F8321289F8F33189F8F43189F87E
:10489000F52189F8F6A1C9F8FEE138463146FDF761
:1048A000F8FD00287FF42EAF4FF0F80A01E04FF03A
:1048B000F00A09F13406304600214FF40072FEF789
:1048C00050FC304644490B22FEF72FFC4FF4007396
:1048D000B8F1030FA9F83F304FF0010389F84430D5
:1048E00089F84150A9F842B00CBF00234FF400737F
:1048F000A9F84530079B89F849A0B3F5803F34BF3C
:10490000A9F84730C9F854303F23A9F84C30FF23A9
:10491000A9F84E30019BC9F85030FEF7DDFBB8F125
:10492000030F069016D10223C9F860300123A9F8BD
:1049300064300623A9F86630802389F8743029236F
:10494000C9F87700C9F8584089F8763009F17B003A
:1049500022490CE0802389F8583021492923C9F8DD
:104960005B00A9F84A4089F85A3009F15F00132228
:10497000FEF7DBFB4AF655233846A9F832323146BA
:10498000019A0123FDF785FD00287FF4BBAEB8F145
:10499000030F06D1019B38469A1D31460123FDF7CE
:1049A00078FD304600214FF40072FEF7DAFBB8F1D3
:1049B000030F19D00B4BB8F1010F18BF6FF0FF03B5
:1049C00043EA0A030693C9F834301AE0E8C3072023
:1049D00058F501006EF5010094F50100A0F5010005
:1049E000B4F5010000FFFF006AF0FF030693C9F869
:1049F00034304FF0FF33C9F838306FF07043C9F8E6
:104A00003C30029B31461A4603F1010A3846012325
:104A1000FDF73FFD014600287FF474AE30464FF4A9
:104A20000072FEF79EFB01230693069BA3420FD262
:104A300038463146524601230AF1010BFDF729FDA4
:104A400000287FF45FAE069BDA4601330693ECE75D
:104A5000039B5446B8F1030F18BF1D463846314634
:104A6000524601230AF1010BFDF713FD00287FF4E4
:104A700049AE2B195B45DA46F0D1B8F1030F22D1CC
:104A8000434B3146C9F8343003F1FF5303F500536B
:104A90002033C9F81832049B3846013BC9F81C3250
:104AA0000223C9F820324AF65523A9F83232019B75
:104AB0005A1C0123FDF7EDFC019B3846DA1D3146F7
:104AC0000123FDF7E6FC002138460A46FDF7FDFC10
:104AD000003018BF012057E00B2055E0132053E0B1
:104AE0000C2051E003204FE00A204DE009F134068C
:104AF000304600214FF40072FEF733FB3046254963
:104B00000B22FEF712FB4FF40073A9F83F3089F82F
:104B10004150A9F842B089F844804FF0F00AE7E626
:104B2000DEB109F13406304600214FF40072FEF781
:104B300018FB304617490B22FEF7F7FA4FF40073C3
:104B4000A9F83F30012389F8443089F84150A9F889
:104B500042B04FF0F00A0023CAE64FF00C0A6DE6AF
:104B600004EB44040134640803344FF0010804F2F8
:104B7000FF142022640A03924FF0010BFAE502347D
:104B800064004FF00208F2E709B0BDE8F08F00BF03
:104B90005252614194F50100F8B50D4616461F4684
:104BA00008B90120F8BD0029FBD00468002CF8D01A
:104BB000206831463A46069BA84708B16468F5E785
:104BC000F8BD0000F0B50024ADF50D7D0D4607469B
:104BD000029402F0B7FA4FF47A72002303F094FDC6
:104BE000214606464FF4097203A804F0CDF9DDB161
:104BF00003A81C491222FFF7C9F9044680B903A88B
:104C00000699FFF746FC044630B903A839462A4600
:104C100002ABFFF712FB044603A8FFF728FC04E0F1
:104C2000114805F025FB00E02C4602F08BFA4FF40A
:104C30007A72002303F068FD0C4B801B1A889042A7
:104C4000029A88BF1880AB1A5E425E4136B9059B56
:104C50000748009321462B4605F00AFB30460DF528
:104C60000D7DF0BD55F601005FF60100F4C307208D
:104C700073F601002B4B2DE9F7431E6806F580689B
:104C8000B14602AF0023284C47F8043D206839465E
:104C90004EF6602201F06BFB08B1019B2BB9304648
:104CA000C6EB0901FFF78EFFEAE7206801F009FC77
:104CB0001E4B019C1A880130904288BF1880204604
:104CC00005F0D7FD0A232354451C019B002209EB64
:104CD00005045A554445019915D34846C9EB0802C5
:104CE00004F02CF9C8EB040430464FF48061FFF760
:104CF00069FF34B101992D1B30462944224604F046
:104D00001DF9344403E048462A4604F017F9084BDD
:104D1000394618684FF0FF32002301F054FAA146DB
:104D2000AFE700BFF8C30720F0C3072000C4072087
:104D3000FCC307202DE9F0412E4D86B02C6880463B
:104D4000002C54D14FF48060059404F0C9F82A4E29
:104D5000286040B92868002835D004F0C9F8254BF0
:104D600000221A602FE0042122460A2001F003FAF3
:104D7000224F0421386022460A2001F0FCF93B68EA
:104D80003060002BE6D00028E4D00A24962004F0FE
:104D9000A7F805900028DDD00022306805A9134649
:104DA00001F011FA013CF1D1CDF800800194029498
:104DB0000394134813494FF4C072234601F0C6FB15
:104DC0000028C7D013E033681BB90F4805F0C6FAB6
:104DD0000DE00A240022306805A9134601F0C7FA45
:104DE00010B1059804F084F8013CF3D1EDE706B06A
:104DF000BDE8F081F8C30720FCC30720F0C30720FB
:104E0000754C0100A6F60100ADF6010010B5044690
:104E100001F07CFF013C14F8010F10B102F098FB87
:104E2000F9E7BDE8104001F083BF0FB470B5C2B020
:104E300046AC54F8046B4FF480752A4602A8002152
:104E400004F0A2F823462946324602A8019406F04F
:104E50001DFD044602A8FFF7D9FF204642B0BDE879
:104E6000704004B0704713B50C4602AA00210B46EF
:104E700042F8041D006801F03FFA019B1BB1236852
:104E800043F001032360012002B010BD30B5044699
:104E900085B001A80D4600F081FB9DF8063022790F
:104EA00003F01F039A421CD19DF80530627903F08C
:104EB0003F039A4215D19DF80430A27903F03F03D5
:104EC0009A420ED12368002104AA186842F8101DE6
:104ED0000B4601F011FA009B1BB12B6843F0010354
:104EE0002B60012005B030BD30B5224A87B0137861
:104EF000214C43F001031370002503A8029500F034
:104F00004DFB2B46009520681C4902AAFFF744FE82
:104F10009DF80C3013F03F031BD1009360681749D4
:104F200002AAFFF739FE9DF80D3013F03F0310D1B0
:104F30000093A068114902AAFFF72EFE9DF80E30DB
:104F400013F01F0305D10093E0680C4902AAFFF794
:104F500023FE00230A4A009310680A4902AAFFF7B9
:104F60001BFE029B1BB1084B4FF080521A6007B02A
:104F700030BD00BF0040024004C40720674E01005E
:104F800014C407208D4E010004ED00E070B5064604
:104F900002F0D8F8841941F1000502F0D3F8A942D3
:104FA00008BFA042F9D370BD08B501F0BDFD831E56
:104FB0005842584108BD10B50446FFF7F5FF20B12F
:104FC0002046BDE8104001F083BC4FF47A70604386
:104FD000BDE81040FFF7DABF074A136823F0E0632B
:104FE00023F0FF031360136843F0807101238340B3
:104FF0000B431360704700BF0040034007B5002318
:105000000A4A0193526802A9C2F30B1221F8062D35
:10501000074A106801AA01F06FF9019B1BB1054B0B
:105020004FF080521A6003B05DF804FB004003406B
:1050300018C4072004ED00E010B502F0FBF90121CF
:10504000C4080C2002F016F80C20032102F02AF804
:10505000114A4FF4001313600223B4FBF3F00F491D
:10506000884204D8116841EA0323136003E0023345
:10507000B3F5807FF1D1012001F018F9084B00222F
:1050800018600221012001F076F8064B4FF48002EF
:105090001860054B1A6010BD004003403F5DC6001C
:1050A0001CC4072018C4072000E100E0F7B507285A
:1050B0004FF000040546ADF806402AD801F034FD53
:1050C0000228164E19D1164F214623464FF0FF32C3
:1050D000386801F04CF92846FFF77EFF0DF1060114
:1050E000234630684FF0FF3201F041F9386821461D
:1050F0002246234601F067F80BE02846FFF76CFFD5
:10510000002230680DF10601134601F030F9002845
:10511000F6D0BDF8060003B0F0BD00BF18C40720EC
:105120001CC40720026830B5D36913F0040310D003
:1051300002F1300301F1100451F8045BA14243F87D
:10514000045BF9D1438A0133438221235360012058
:1051500030BD184630BD00002DE9FF41264D440109
:1051600055F804802E19D8F80C70D8F808303B4355
:10517000D9071AD5706801F0ADF9F389083698425D
:1051800088BFF08000222E19706808F120011346B4
:1051900001F0B2F818B1B38A0133B38202E0B389E7
:1051A0000133B3810423C8F8043040F202633B406A
:1051B00093B12E19B06801F08DF9338A694698428F
:1051C00088BF30822E19B068002201F051F918B161
:1051D00030466946FFF7A6FFBA0603D52B199B692F
:1051E000384698473B0703D52C44E369384698472F
:1051F00004B0BDE8F08100BF08C00720084B10B51F
:10520000D3F8C440A20402D50020FFF7A5FF630431
:1052100004D5BDE810400120FFF79EBF10BD00BFC0
:1052200000C00F4070B505460E4614467CB12B6891
:105230006BB12268134208D06368984722682B68D4
:1052400023EA02032B6023683360A468EEE770BD95
:10525000F8B5012484400F4616461D4610D079B19A
:105260000C2003F03DFE58B133682A688360054B7B
:1052700080E8900014434FF4001230602C601A60F4
:10528000F8BD00BF00E100E01FB5184C6846636838
:1052900017490093A3680193636A0293A36A039377
:1052A000144B1A68FFF7BEFF134B01A81A68104988
:1052B000FFF7B8FF114B02A81A681149FFF7B2FFB8
:1052C000104B03A81A680E49FFF7ACFF009B0BB9FF
:1052D000019B13B14FF0FF33E360029B0BB9039BBB
:1052E00013B14FF0FF33E36204B010BD8080024081
:1052F0008C80024028C407202CC4072020C407202B
:10530000AC80024024C4072010B5074B074C00298D
:105310001146074A08BF1A46064B18BF2346BDE888
:105320001040FFF795BF00BF28C4072094800240BB
:105330002CC407209080024070B5184B0E465C6963
:10534000174B05461A6C1A2022F470021A641A6C64
:1053500004F4406442F420021A64996E41F44061FE
:105360009966196821F470011960196841F42001E7
:105370001960032101F096FE02F05CF8B4F5406F6D
:10538000014606D128463246BDE87040C90800F003
:10539000E3BB01236B71002070BD00BF00C009207A
:1053A00000C0024010B50446024900F0A7FB2046A9
:1053B00010BD00BF00000A4038B5074C236833B960
:1053C0001C20FAF759FF0546FFF7ECFF256020681F
:1053D000BDE8384000F098BCE8C1072070B51D4D0D
:1053E00004462B680170002A14BF16466426CBB908
:1053F00002F020F8B0FBF6F001212860062001F051
:1054000039FE0620012101F04DFE134B5A6942F08E
:1054100002025A612A689A6109225A601A6F22F0C0
:105420000F021A6722780D49550008690323AB4023
:1054300020EA03030B610869012303FA05F52843F9
:10544000086105480932C16C93400B43C364204690
:1054500070BD00BF30C407200080014000C0024082
:1054600030B50378094C03F10905E16C0122AA402B
:1054700021EA0202E26404F5A034226903215B0000
:1054800001FA03F322EA0303236130BD00800140E7
:1054900038B505460C4608461A4903F0E5F80028D9
:1054A0002ED1194B186802F0CBFE0146204602F0BF
:1054B0001FFF144902F0D0FF03F006F92B78052BEB
:1054C0001ED8DFE803F00306090C0F120F4AD06163
:1054D0000DE00E4A10620AE00C4A506207E00B4AE7
:1054E000106404E0094A506401E0084A90640749E6
:1054F00001200A6D013300FA03F313430B6538BD35
:10550000002038BD0000C84230C4072000800140A0
:1055100008B5044B1B689847034A137A43F001030C
:10552000137208BD34C4072000000B401FB50446A9
:10553000054B0DF1100E0FCB0EE90F000EEB84049E
:1055400054F8100C04B010BD10F7010073B50E46EE
:105550000546FFF7EBFF04460E4B0121186802AB2E
:105560001D440090019015F8080C01F083FD15F81A
:10557000040C012101F096FD00230122A36062606A
:10558000236701F057FF044BB0FBF3F04643E6609E
:1055900002B070BD20F7010040420F00F0B5124B81
:1055A00087B06C461D46074693E807008DE8070064
:1055B00003AE93E8070086E80700204631460C2238
:1055C00003F0ACFC40B195E8070084E8070095E8DB
:1055D000070086E80700F0E703CC386020687960B0
:1055E000B860384607B0F0BD14400240184B0022A6
:1055F0001A720278C2F3050283F820204278C2F3BF
:10560000050283F824208278C2F3040283F828205C
:10561000C278C2F3020283F830200279C2F3040296
:1056200083F82C204279C2F3030283F83820C27930
:10563000817902F00F0241EA02229A87427A017AC6
:1056400002F00F0241EA02229A8601221A72704782
:10565000004002401FB50920012101F00BFD304B35
:1056600001221A7201A8FFF799FFBDF80A3003F66C
:105670002603C3F30B030F2B1ED89DF8053003F050
:105680003F033B2B18DC9DF8043003F03F033B2B1A
:1056900012DC9DF8063003F01F03172B0CDCBDF85D
:1056A0000C30C3F30B03B3F5B77F05DA9DF809306F
:1056B00003F00F030C2B2FDD9DF80830012262F35D
:1056C00004038DF808309DF8093001A862F3030344
:1056D00040F2DA728DF80930BDF80A3062F30B033C
:1056E000ADF80A309DF807306FF302038DF80730EC
:1056F0009DF806306FF304038DF806309DF80530F1
:105700006FF305038DF805309DF804306FF3050342
:105710008DF80430FFF76AFF05B05DF804FB00BFA9
:105720000040024008B51D20012101F0A3FC034BFD
:1057300001221A631A6BD207FCD508BD0040005045
:1057400073B54FF0FF33B1F5805F01934AD2284B18
:105750001C69E40748D4274C2469E60744D4264C46
:10576000E5686D0701D5A468F9E7244C0325A56019
:105770002561234C1E4E1C60254622B101AC74608D
:1057800041F0004402E0706041F00844F4600024FD
:105790009C6041F206041C61164C1AB1206041F075
:1057A000806101E001AA22600022E1606560A260E0
:1057B0004FF4086222611A6942F001021A612269FB
:1057C00042F0010222610C4A516A41F00301516228
:1057D000D868C0F30B000028FAD1536A23F0030302
:1057E000536202E0012000E0022002B070BD00BF61
:1057F0002041005000410050000003400040005094
:105800000800034010B50A4C23681BB9012000F0C2
:105810004DFD206001F088F9022808D100212068A0
:105820004FF0FF320B46BDE8104000F0A0BD10BDA8
:1058300038C4072010B501F077F9022808D1BDE877
:105840001040044B002118680A460B4600F0BBBC10
:1058500010BD00BF38C4072010B50446024B0360DA
:1058600000F0A8F8204610BDB8F8010010B50446B5
:10587000FFF7F2FF2046FAF701FD204610BD0000B9
:1058800010B50446034900F037FB034B2046236064
:1058900010BD00BF00C0004078F7010038B5074CCC
:1058A000236833B92C20FAF7E7FC0546FFF7E8FF39
:1058B00025602068BDE8384000F0C4BAECC107207C
:1058C00010B50446024B036000F074F8204610BD8A
:1058D000B8F8010010B50446FFF7F2FF2046FAF7CA
:1058E000CDFC204610BD000010B50446034900F071
:1058F00003FB034B2046236010BD00BF008009401E
:10590000E8F7010038B5074C236833B92C20FAF7C3
:10591000B3FC0546FFF7E8FF25602068BDE8384086
:1059200000F090BA3CC4072010B50446024B036057
:1059300000F040F8204610BDB8F8010010B504464C
:10594000FFF7F2FF2046FAF799FC204610BD000051
:1059500010B50446034900F0CFFA034B20462360FC
:1059600010BD00BF00C0094058F8010038B5074C11
:10597000236833B92C20FAF77FFC0546FFF7E8FFD0
:1059800025602068BDE8384000F05CBA40C40720BC
:1059900001207047064B10B50360002304464360A6
:1059A00003810374012000F081FCE060204610BDFB
:1059B00078F80100044B10B504460360406808B154
:1059C00003F096FA204610BD78F801002DE9F8435F
:1059D00045790446894690461E46089F0DB100252C
:1059E0005EE0002BFBD001F09FF802282BD023684B
:1059F00020222761A661A57584F8149084F815808B
:105A00001A6001F09FFB4FF47A72002302F07CFED3
:105A100010F57A7641F100070021E0680A460B464E
:105A200000F0A5FC50B901F08DFB4FF47A72002311
:105A300002F06AFE8F4208BF8642EDD2A57DB5FA1C
:105A400085F56D092CE0A06829464FF47A722B4643
:105A500000F08DFC0028C2D029462A462B46E0687B
:105A600000F085FC23682022A57584F8149084F842
:105A700015802761A661E0681A6029464FF47A72A2
:105A80002B4600F074FC20B1A57DB5FA85F56D09B3
:105A900000E005460021A0680A460B4600F093FB93
:105AA0002846BDE8F88341F00101FFF78FBF1FB51D
:105AB000002404AB03F8014D01240094FFF7F3FF29
:105AC0009DF80F0004B010BD01F0FE01FFF77EBF8E
:105AD0001FB504AC04F8013D012300932346FFF7F2
